{
  "abi": [
    {
      "anonymous": false,
      "inputs": [
        {
          "indexed": true,
          "internalType": "address",
          "name": "previousOwner",
          "type": "address"
        },
        {
          "indexed": true,
          "internalType": "address",
          "name": "newOwner",
          "type": "address"
        }
      ],
      "name": "OwnershipTransferred",
      "type": "event"
    },
    {
      "anonymous": false,
      "inputs": [],
      "name": "notify_consumer",
      "type": "event"
    },
    {
      "anonymous": false,
      "inputs": [],
      "name": "notify_rewards",
      "type": "event"
    },
    {
      "inputs": [],
      "name": "getBids",
      "outputs": [
        {
          "components": [
            {
              "internalType": "uint256",
              "name": "power",
              "type": "uint256"
            },
            {
              "internalType": "uint256",
              "name": "price",
              "type": "uint256"
            },
            {
              "internalType": "address",
              "name": "consumer",
              "type": "address"
            }
          ],
          "internalType": "struct DemandReduction.Bid[]",
          "name": "",
          "type": "tuple[]"
        }
      ],
      "stateMutability": "view",
      "type": "function"
    },
    {
      "inputs": [
        {
          "internalType": "address",
          "name": "consumer",
          "type": "address"
        }
      ],
      "name": "getRegistered",
      "outputs": [
        {
          "internalType": "bool",
          "name": "",
          "type": "bool"
        }
      ],
      "stateMutability": "view",
      "type": "function"
    },
    {
      "inputs": [],
      "name": "getRewardAmount",
      "outputs": [
        {
          "internalType": "uint256",
          "name": "",
          "type": "uint256"
        }
      ],
      "stateMutability": "view",
      "type": "function"
    },
    {
      "inputs": [],
      "name": "getWinners",
      "outputs": [
        {
          "internalType": "address[]",
          "name": "",
          "type": "address[]"
        }
      ],
      "stateMutability": "view",
      "type": "function"
    },
    {
      "inputs": [],
      "name": "owner",
      "outputs": [
        {
          "internalType": "address",
          "name": "",
          "type": "address"
        }
      ],
      "stateMutability": "view",
      "type": "function"
    },
    {
      "inputs": [],
      "name": "register",
      "outputs": [],
      "stateMutability": "nonpayable",
      "type": "function"
    },
    {
      "inputs": [],
      "name": "renounceOwnership",
      "outputs": [],
      "stateMutability": "nonpayable",
      "type": "function"
    },
    {
      "inputs": [
        {
          "internalType": "uint256",
          "name": "reduction_amount",
          "type": "uint256"
        }
      ],
      "name": "request_reduction",
      "outputs": [],
      "stateMutability": "payable",
      "type": "function"
    },
    {
      "inputs": [],
      "name": "select_winners",
      "outputs": [],
      "stateMutability": "nonpayable",
      "type": "function"
    },
    {
      "inputs": [
        {
          "internalType": "uint256[]",
          "name": "power",
          "type": "uint256[]"
        },
        {
          "internalType": "uint256[]",
          "name": "price",
          "type": "uint256[]"
        }
      ],
      "name": "submit_bids",
      "outputs": [],
      "stateMutability": "nonpayable",
      "type": "function"
    },
    {
      "inputs": [
        {
          "internalType": "address",
          "name": "newOwner",
          "type": "address"
        }
      ],
      "name": "transferOwnership",
      "outputs": [],
      "stateMutability": "nonpayable",
      "type": "function"
    }
  ],
  "bytecode": "608060405234801561001057600080fd5b5061001a3361001f565b61006f565b600080546001600160a01b038381166001600160a01b0319831681178455604051919092169283917f8be0079c531659141344cd1fd0a4f28419497f9722a3daafe3b4186f6b6457e09190a35050565b610f4a8061007e6000396000f3fe60806040526004361061009c5760003560e01c806373840a851161006457806373840a85146101595780638da5cb5b1461016c578063b81c78ec14610194578063b86114f0146101b6578063df15c37e146101cb578063f2fde38b146101ed57600080fd5b806309a69f57146100a1578063182e412f146100c45780631aa3a008146100e65780636bfa4e79146100fb578063715018a614610144575b600080fd5b3480156100ad57600080fd5b506005546040519081526020015b60405180910390f35b3480156100d057600080fd5b506100e46100df366004610cb5565b61020d565b005b3480156100f257600080fd5b506100e4610355565b34801561010757600080fd5b50610134610116366004610d19565b6001600160a01b031660009081526001602052604090205460ff1690565b60405190151581526020016100bb565b34801561015057600080fd5b506100e4610406565b6100e4610167366004610d49565b61043c565b34801561017857600080fd5b506000546040516001600160a01b0390911681526020016100bb565b3480156101a057600080fd5b506101a961054a565b6040516100bb9190610d62565b3480156101c257600080fd5b506100e46105cc565b3480156101d757600080fd5b506101e06106e2565b6040516100bb9190610dc4565b3480156101f957600080fd5b506100e4610208366004610d19565b610744565b80518251146102895760405162461bcd60e51b815260206004820152603d60248201527f4561636820626964206d7573742068617665206120726564756374696f6e206160448201527f6d6f756e7420616e6420616e206173736f63696174656420707269636500000060648201526084015b60405180910390fd5b60005b825181101561035057600360405180606001604052808584815181106102b4576102b4610e11565b602002602001015181526020018484815181106102d3576102d3610e11565b602002602001015160016102e79190610e3d565b8152336020918201528254600180820185556000948552938290208351600390920201908155908201519281019290925560400151600290910180546001600160a01b0319166001600160a01b039092169190911790558061034881610e5c565b91505061028c565b505050565b3360009081526001602052604090205460ff16156103aa5760405162461bcd60e51b8152602060048201526012602482015271105b1c9958591e481c9959da5cdd195c995960721b6044820152606401610280565b6002805460018181019092557f405787fa12a823e0f2b7631cc41b3ba8828b3321ca811111fa75cd3aa3bb5ace0180546001600160a01b031916339081179091556000908152602082905260409020805460ff19169091179055565b6000546001600160a01b031633146104305760405162461bcd60e51b815260040161028090610e77565b61043a60006107df565b565b6000546001600160a01b031633146104665760405162461bcd60e51b815260040161028090610e77565b600081116104c25760405162461bcd60e51b815260206004820152602360248201527f4d7573742072657175657374206120726564756374696f6e20616d6f756e742060448201526203e20360ec1b6064820152608401610280565b662386f26fc100003410156105195760405162461bcd60e51b815260206004820152601c60248201527f4d75737420706179206174206c6561737420302e3031206574686572000000006044820152606401610280565b60068190556040517f9660d9f6135e8ba241e46b593c6773ec3dfd341264e5d1dbe97aeff97356573490600090a150565b60606003805480602002602001604051908101604052809291908181526020016000905b828210156105c3576000848152602090819020604080516060810182526003860290920180548352600180820154848601526002909101546001600160a01b031691830191909152908352909201910161056e565b50505050905090565b6003546106105760405162461bcd60e51b8152602060048201526012602482015271546865726520617265206e6f20626964732160701b6044820152606401610280565b61061c60046000610b7f565b60606003805480602002602001604051908101604052809291908181526020016000905b82821015610695576000848152602090819020604080516060810182526003860290920180548352600180820154848601526002909101546001600160a01b0316918301919091529083529092019101610640565b5050505090506106b881600060016003805490506106b39190610eac565b61082f565b60006106c6826006546109bd565b90506106d28282610a48565b6106de60036000610b9d565b5050565b6060600480548060200260200160405190810160405280929190818152602001828054801561073a57602002820191906000526020600020905b81546001600160a01b0316815260019091019060200180831161071c575b5050505050905090565b6000546001600160a01b0316331461076e5760405162461bcd60e51b815260040161028090610e77565b6001600160a01b0381166107d35760405162461bcd60e51b815260206004820152602660248201527f4f776e61626c653a206e6577206f776e657220697320746865207a65726f206160448201526564647265737360d01b6064820152608401610280565b6107dc816107df565b50565b600080546001600160a01b038381166001600160a01b0319831681178455604051919092169283917f8be0079c531659141344cd1fd0a4f28419497f9722a3daafe3b4186f6b6457e09190a35050565b818180821415610840575050505050565b600085600261084f8787610eac565b6108599190610ec3565b6108639087610ee5565b8151811061087357610873610e11565b60200260200101516020015190505b81831161098f575b8086848151811061089d5761089d610e11565b60200260200101516020015110156108c157826108b981610e5c565b93505061088a565b8582815181106108d3576108d3610e11565b6020026020010151602001518110156108f857816108f081610efd565b9250506108c1565b81831161098a5785828151811061091157610911610e11565b602002602001015186848151811061092b5761092b610e11565b602002602001015187858151811061094557610945610e11565b6020026020010188858151811061095e5761095e610e11565b602002602001018290528290525050828061097890610e5c565b935050818061098690610efd565b9250505b610882565b818510156109a2576109a286868461082f565b838310156109b5576109b586848661082f565b505050505050565b60008080805b8551811015610a3e578581815181106109de576109de610e11565b602002602001015160000151826109f59190610ee5565b91506006548210610a2c57809250858181518110610a1557610a15610e11565b602002602001015160200151600581905550610a3e565b80610a3681610e5c565b9150506109c3565b5090949350505050565b60005b818111610b0a576000838281518110610a6657610a66610e11565b60200260200101516040015190506004848381518110610a8857610a88610e11565b6020908102919091018101516040908101518354600181018555600094855292842090920180546001600160a01b0319166001600160a01b039384161790556005549051918416926108fc8215029290818181858888f19350505050158015610af5573d6000803e3d6000fd5b50508080610b0290610e5c565b915050610a4b565b50600080546001600160a01b03166040519091506001600160a01b038216904780156108fc02916000818181858888f19350505050158015610b50573d6000803e3d6000fd5b506040517f2a071a72223d3c3a8ec68c16ce284e338fd8053d4e51fa0a65eb7aba0173a9f690600090a1505050565b50805460008255906000526020600020908101906107dc9190610bbe565b50805460008255600302906000526020600020908101906107dc9190610bd7565b5b80821115610bd35760008155600101610bbf565b5090565b5b80821115610bd357600080825560018201556002810180546001600160a01b0319169055600301610bd8565b634e487b7160e01b600052604160045260246000fd5b600082601f830112610c2b57600080fd5b8135602067ffffffffffffffff80831115610c4857610c48610c04565b8260051b604051601f19603f83011681018181108482111715610c6d57610c6d610c04565b604052938452858101830193838101925087851115610c8b57600080fd5b83870191505b84821015610caa57813583529183019190830190610c91565b979650505050505050565b60008060408385031215610cc857600080fd5b823567ffffffffffffffff80821115610ce057600080fd5b610cec86838701610c1a565b93506020850135915080821115610d0257600080fd5b50610d0f85828601610c1a565b9150509250929050565b600060208284031215610d2b57600080fd5b81356001600160a01b0381168114610d4257600080fd5b9392505050565b600060208284031215610d5b57600080fd5b5035919050565b602080825282518282018190526000919060409081850190868401855b82811015610db75781518051855286810151878601528501516001600160a01b03168585015260609093019290850190600101610d7f565b5091979650505050505050565b6020808252825182820181905260009190848201906040850190845b81811015610e055783516001600160a01b031683529284019291840191600101610de0565b50909695505050505050565b634e487b7160e01b600052603260045260246000fd5b634e487b7160e01b600052601160045260246000fd5b6000816000190483118215151615610e5757610e57610e27565b500290565b6000600019821415610e7057610e70610e27565b5060010190565b6020808252818101527f4f776e61626c653a2063616c6c6572206973206e6f7420746865206f776e6572604082015260600190565b600082821015610ebe57610ebe610e27565b500390565b600082610ee057634e487b7160e01b600052601260045260246000fd5b500490565b60008219821115610ef857610ef8610e27565b500190565b600081610f0c57610f0c610e27565b50600019019056fea26469706673582212202a20278dc05958612b7fc9084c58f4efed0d80a659db23bcefa068dcd2223b4a64736f6c634300080b0033",
  "bytecodeSha1": "252263447f1dc6fdb7b6001ba09828b097940ec4",
  "compiler": {
    "evm_version": "istanbul",
    "optimizer": {
      "enabled": true,
      "runs": 200
    },
    "version": "0.8.11+commit.d7f03943"
  },
  "contractName": "DemandReduction",
  "language": "Solidity",
  "natspec": {
    "kind": "dev",
    "methods": {
      "owner()": {
        "details": "Returns the address of the current owner."
      },
      "renounceOwnership()": {
        "details": "Leaves the contract without owner. It will not be possible to call `onlyOwner` functions anymore. Can only be called by the current owner. NOTE: Renouncing ownership will leave the contract without an owner, thereby removing any functionality that is only available to the owner."
      },
      "transferOwnership(address)": {
        "details": "Transfers ownership of the contract to a new account (`newOwner`). Can only be called by the current owner."
      }
    },
    "version": 1
  },
  "opcodes": "PUSH1 0x80 PUSH1 0x40 MSTORE PUSH1 0x4 CALLDATASIZE LT PUSH2 0x9C JUMPI PUSH1 0x0 CALLDATALOAD PUSH1 0xE0 SHR DUP1 PUSH4 0x73840A85 GT PUSH2 0x64 JUMPI DUP1 PUSH4 0x73840A85 EQ PUSH2 0x159 JUMPI DUP1 PUSH4 0x8DA5CB5B EQ PUSH2 0x16C JUMPI DUP1 PUSH4 0xB81C78EC EQ PUSH2 0x194 JUMPI DUP1 PUSH4 0xB86114F0 EQ PUSH2 0x1B6 JUMPI DUP1 PUSH4 0xDF15C37E EQ PUSH2 0x1CB JUMPI DUP1 PUSH4 0xF2FDE38B EQ PUSH2 0x1ED JUMPI PUSH1 0x0 DUP1 REVERT JUMPDEST DUP1 PUSH4 0x9A69F57 EQ PUSH2 0xA1 JUMPI DUP1 PUSH4 0x182E412F EQ PUSH2 0xC4 JUMPI DUP1 PUSH4 0x1AA3A008 EQ PUSH2 0xE6 JUMPI DUP1 PUSH4 0x6BFA4E79 EQ PUSH2 0xFB JUMPI DUP1 PUSH4 0x715018A6 EQ PUSH2 0x144 JUMPI JUMPDEST PUSH1 0x0 DUP1 REVERT JUMPDEST CALLVALUE DUP1 ISZERO PUSH2 0xAD JUMPI PUSH1 0x0 DUP1 REVERT JUMPDEST POP PUSH1 0x5 SLOAD PUSH1 0x40 MLOAD SWAP1 DUP2 MSTORE PUSH1 0x20 ADD JUMPDEST PUSH1 0x40 MLOAD DUP1 SWAP2 SUB SWAP1 RETURN JUMPDEST CALLVALUE DUP1 ISZERO PUSH2 0xD0 JUMPI PUSH1 0x0 DUP1 REVERT JUMPDEST POP PUSH2 0xE4 PUSH2 0xDF CALLDATASIZE PUSH1 0x4 PUSH2 0xCB5 JUMP JUMPDEST PUSH2 0x20D JUMP JUMPDEST STOP JUMPDEST CALLVALUE DUP1 ISZERO PUSH2 0xF2 JUMPI PUSH1 0x0 DUP1 REVERT JUMPDEST POP PUSH2 0xE4 PUSH2 0x355 JUMP JUMPDEST CALLVALUE DUP1 ISZERO PUSH2 0x107 JUMPI PUSH1 0x0 DUP1 REVERT JUMPDEST POP PUSH2 0x134 PUSH2 0x116 CALLDATASIZE PUSH1 0x4 PUSH2 0xD19 JUMP JUMPDEST PUSH1 0x1 PUSH1 0x1 PUSH1 0xA0 SHL SUB AND PUSH1 0x0 SWAP1 DUP2 MSTORE PUSH1 0x1 PUSH1 0x20 MSTORE PUSH1 0x40 SWAP1 KECCAK256 SLOAD PUSH1 0xFF AND SWAP1 JUMP JUMPDEST PUSH1 0x40 MLOAD SWAP1 ISZERO ISZERO DUP2 MSTORE PUSH1 0x20 ADD PUSH2 0xBB JUMP JUMPDEST CALLVALUE DUP1 ISZERO PUSH2 0x150 JUMPI PUSH1 0x0 DUP1 REVERT JUMPDEST POP PUSH2 0xE4 PUSH2 0x406 JUMP JUMPDEST PUSH2 0xE4 PUSH2 0x167 CALLDATASIZE PUSH1 0x4 PUSH2 0xD49 JUMP JUMPDEST PUSH2 0x43C JUMP JUMPDEST CALLVALUE DUP1 ISZERO PUSH2 0x178 JUMPI PUSH1 0x0 DUP1 REVERT JUMPDEST POP PUSH1 0x0 SLOAD PUSH1 0x40 MLOAD PUSH1 0x1 PUSH1 0x1 PUSH1 0xA0 SHL SUB SWAP1 SWAP2 AND DUP2 MSTORE PUSH1 0x20 ADD PUSH2 0xBB JUMP JUMPDEST CALLVALUE DUP1 ISZERO PUSH2 0x1A0 JUMPI PUSH1 0x0 DUP1 REVERT JUMPDEST POP PUSH2 0x1A9 PUSH2 0x54A JUMP JUMPDEST PUSH1 0x40 MLOAD PUSH2 0xBB SWAP2 SWAP1 PUSH2 0xD62 JUMP JUMPDEST CALLVALUE DUP1 ISZERO PUSH2 0x1C2 JUMPI PUSH1 0x0 DUP1 REVERT JUMPDEST POP PUSH2 0xE4 PUSH2 0x5CC JUMP JUMPDEST CALLVALUE DUP1 ISZERO PUSH2 0x1D7 JUMPI PUSH1 0x0 DUP1 REVERT JUMPDEST POP PUSH2 0x1E0 PUSH2 0x6E2 JUMP JUMPDEST PUSH1 0x40 MLOAD PUSH2 0xBB SWAP2 SWAP1 PUSH2 0xDC4 JUMP JUMPDEST CALLVALUE DUP1 ISZERO PUSH2 0x1F9 JUMPI PUSH1 0x0 DUP1 REVERT JUMPDEST POP PUSH2 0xE4 PUSH2 0x208 CALLDATASIZE PUSH1 0x4 PUSH2 0xD19 JUMP JUMPDEST PUSH2 0x744 JUMP JUMPDEST DUP1 MLOAD DUP3 MLOAD EQ PUSH2 0x289 JUMPI PUSH1 0x40 MLOAD PUSH3 0x461BCD PUSH1 0xE5 SHL DUP2 MSTORE PUSH1 0x20 PUSH1 0x4 DUP3 ADD MSTORE PUSH1 0x3D PUSH1 0x24 DUP3 ADD MSTORE PUSH32 0x4561636820626964206D7573742068617665206120726564756374696F6E2061 PUSH1 0x44 DUP3 ADD MSTORE PUSH32 0x6D6F756E7420616E6420616E206173736F636961746564207072696365000000 PUSH1 0x64 DUP3 ADD MSTORE PUSH1 0x84 ADD JUMPDEST PUSH1 0x40 MLOAD DUP1 SWAP2 SUB SWAP1 REVERT JUMPDEST PUSH1 0x0 JUMPDEST DUP3 MLOAD DUP2 LT ISZERO PUSH2 0x350 JUMPI PUSH1 0x3 PUSH1 0x40 MLOAD DUP1 PUSH1 0x60 ADD PUSH1 0x40 MSTORE DUP1 DUP6 DUP5 DUP2 MLOAD DUP2 LT PUSH2 0x2B4 JUMPI PUSH2 0x2B4 PUSH2 0xE11 JUMP JUMPDEST PUSH1 0x20 MUL PUSH1 0x20 ADD ADD MLOAD DUP2 MSTORE PUSH1 0x20 ADD DUP5 DUP5 DUP2 MLOAD DUP2 LT PUSH2 0x2D3 JUMPI PUSH2 0x2D3 PUSH2 0xE11 JUMP JUMPDEST PUSH1 0x20 MUL PUSH1 0x20 ADD ADD MLOAD PUSH1 0x1 PUSH2 0x2E7 SWAP2 SWAP1 PUSH2 0xE3D JUMP JUMPDEST DUP2 MSTORE CALLER PUSH1 0x20 SWAP2 DUP3 ADD MSTORE DUP3 SLOAD PUSH1 0x1 DUP1 DUP3 ADD DUP6 SSTORE PUSH1 0x0 SWAP5 DUP6 MSTORE SWAP4 DUP3 SWAP1 KECCAK256 DUP4 MLOAD PUSH1 0x3 SWAP1 SWAP3 MUL ADD SWAP1 DUP2 SSTORE SWAP1 DUP3 ADD MLOAD SWAP3 DUP2 ADD SWAP3 SWAP1 SWAP3 SSTORE PUSH1 0x40 ADD MLOAD PUSH1 0x2 SWAP1 SWAP2 ADD DUP1 SLOAD PUSH1 0x1 PUSH1 0x1 PUSH1 0xA0 SHL SUB NOT AND PUSH1 0x1 PUSH1 0x1 PUSH1 0xA0 SHL SUB SWAP1 SWAP3 AND SWAP2 SWAP1 SWAP2 OR SWAP1 SSTORE DUP1 PUSH2 0x348 DUP2 PUSH2 0xE5C JUMP JUMPDEST SWAP2 POP POP PUSH2 0x28C JUMP JUMPDEST POP POP POP JUMP JUMPDEST CALLER PUSH1 0x0 SWAP1 DUP2 MSTORE PUSH1 0x1 PUSH1 0x20 MSTORE PUSH1 0x40 SWAP1 KECCAK256 SLOAD PUSH1 0xFF AND ISZERO PUSH2 0x3AA JUMPI PUSH1 0x40 MLOAD PUSH3 0x461BCD PUSH1 0xE5 SHL DUP2 MSTORE PUSH1 0x20 PUSH1 0x4 DUP3 ADD MSTORE PUSH1 0x12 PUSH1 0x24 DUP3 ADD MSTORE PUSH18 0x105B1C9958591E481C9959DA5CDD195C9959 PUSH1 0x72 SHL PUSH1 0x44 DUP3 ADD MSTORE PUSH1 0x64 ADD PUSH2 0x280 JUMP JUMPDEST PUSH1 0x2 DUP1 SLOAD PUSH1 0x1 DUP2 DUP2 ADD SWAP1 SWAP3 SSTORE PUSH32 0x405787FA12A823E0F2B7631CC41B3BA8828B3321CA811111FA75CD3AA3BB5ACE ADD DUP1 SLOAD PUSH1 0x1 PUSH1 0x1 PUSH1 0xA0 SHL SUB NOT AND CALLER SWAP1 DUP2 OR SWAP1 SWAP2 SSTORE PUSH1 0x0 SWAP1 DUP2 MSTORE PUSH1 0x20 DUP3 SWAP1 MSTORE PUSH1 0x40 SWAP1 KECCAK256 DUP1 SLOAD PUSH1 0xFF NOT AND SWAP1 SWAP2 OR SWAP1 SSTORE JUMP JUMPDEST PUSH1 0x0 SLOAD PUSH1 0x1 PUSH1 0x1 PUSH1 0xA0 SHL SUB AND CALLER EQ PUSH2 0x430 JUMPI PUSH1 0x40 MLOAD PUSH3 0x461BCD PUSH1 0xE5 SHL DUP2 MSTORE PUSH1 0x4 ADD PUSH2 0x280 SWAP1 PUSH2 0xE77 JUMP JUMPDEST PUSH2 0x43A PUSH1 0x0 PUSH2 0x7DF JUMP JUMPDEST JUMP JUMPDEST PUSH1 0x0 SLOAD PUSH1 0x1 PUSH1 0x1 PUSH1 0xA0 SHL SUB AND CALLER EQ PUSH2 0x466 JUMPI PUSH1 0x40 MLOAD PUSH3 0x461BCD PUSH1 0xE5 SHL DUP2 MSTORE PUSH1 0x4 ADD PUSH2 0x280 SWAP1 PUSH2 0xE77 JUMP JUMPDEST PUSH1 0x0 DUP2 GT PUSH2 0x4C2 JUMPI PUSH1 0x40 MLOAD PUSH3 0x461BCD PUSH1 0xE5 SHL DUP2 MSTORE PUSH1 0x20 PUSH1 0x4 DUP3 ADD MSTORE PUSH1 0x23 PUSH1 0x24 DUP3 ADD MSTORE PUSH32 0x4D7573742072657175657374206120726564756374696F6E20616D6F756E7420 PUSH1 0x44 DUP3 ADD MSTORE PUSH3 0x3E203 PUSH1 0xEC SHL PUSH1 0x64 DUP3 ADD MSTORE PUSH1 0x84 ADD PUSH2 0x280 JUMP JUMPDEST PUSH7 0x2386F26FC10000 CALLVALUE LT ISZERO PUSH2 0x519 JUMPI PUSH1 0x40 MLOAD PUSH3 0x461BCD PUSH1 0xE5 SHL DUP2 MSTORE PUSH1 0x20 PUSH1 0x4 DUP3 ADD MSTORE PUSH1 0x1C PUSH1 0x24 DUP3 ADD MSTORE PUSH32 0x4D75737420706179206174206C6561737420302E303120657468657200000000 PUSH1 0x44 DUP3 ADD MSTORE PUSH1 0x64 ADD PUSH2 0x280 JUMP JUMPDEST PUSH1 0x6 DUP2 SWAP1 SSTORE PUSH1 0x40 MLOAD PUSH32 0x9660D9F6135E8BA241E46B593C6773EC3DFD341264E5D1DBE97AEFF973565734 SWAP1 PUSH1 0x0 SWAP1 LOG1 POP JUMP JUMPDEST PUSH1 0x60 PUSH1 0x3 DUP1 SLOAD DUP1 PUSH1 0x20 MUL PUSH1 0x20 ADD PUSH1 0x40 MLOAD SWAP1 DUP2 ADD PUSH1 0x40 MSTORE DUP1 SWAP3 SWAP2 SWAP1 DUP2 DUP2 MSTORE PUSH1 0x20 ADD PUSH1 0x0 SWAP1 JUMPDEST DUP3 DUP3 LT ISZERO PUSH2 0x5C3 JUMPI PUSH1 0x0 DUP5 DUP2 MSTORE PUSH1 0x20 SWAP1 DUP2 SWAP1 KECCAK256 PUSH1 0x40 DUP1 MLOAD PUSH1 0x60 DUP2 ADD DUP3 MSTORE PUSH1 0x3 DUP7 MUL SWAP1 SWAP3 ADD DUP1 SLOAD DUP4 MSTORE PUSH1 0x1 DUP1 DUP3 ADD SLOAD DUP5 DUP7 ADD MSTORE PUSH1 0x2 SWAP1 SWAP2 ADD SLOAD PUSH1 0x1 PUSH1 0x1 PUSH1 0xA0 SHL SUB AND SWAP2 DUP4 ADD SWAP2 SWAP1 SWAP2 MSTORE SWAP1 DUP4 MSTORE SWAP1 SWAP3 ADD SWAP2 ADD PUSH2 0x56E JUMP JUMPDEST POP POP POP POP SWAP1 POP SWAP1 JUMP JUMPDEST PUSH1 0x3 SLOAD PUSH2 0x610 JUMPI PUSH1 0x40 MLOAD PUSH3 0x461BCD PUSH1 0xE5 SHL DUP2 MSTORE PUSH1 0x20 PUSH1 0x4 DUP3 ADD MSTORE PUSH1 0x12 PUSH1 0x24 DUP3 ADD MSTORE PUSH18 0x546865726520617265206E6F206269647321 PUSH1 0x70 SHL PUSH1 0x44 DUP3 ADD MSTORE PUSH1 0x64 ADD PUSH2 0x280 JUMP JUMPDEST PUSH2 0x61C PUSH1 0x4 PUSH1 0x0 PUSH2 0xB7F JUMP JUMPDEST PUSH1 0x60 PUSH1 0x3 DUP1 SLOAD DUP1 PUSH1 0x20 MUL PUSH1 0x20 ADD PUSH1 0x40 MLOAD SWAP1 DUP2 ADD PUSH1 0x40 MSTORE DUP1 SWAP3 SWAP2 SWAP1 DUP2 DUP2 MSTORE PUSH1 0x20 ADD PUSH1 0x0 SWAP1 JUMPDEST DUP3 DUP3 LT ISZERO PUSH2 0x695 JUMPI PUSH1 0x0 DUP5 DUP2 MSTORE PUSH1 0x20 SWAP1 DUP2 SWAP1 KECCAK256 PUSH1 0x40 DUP1 MLOAD PUSH1 0x60 DUP2 ADD DUP3 MSTORE PUSH1 0x3 DUP7 MUL SWAP1 SWAP3 ADD DUP1 SLOAD DUP4 MSTORE PUSH1 0x1 DUP1 DUP3 ADD SLOAD DUP5 DUP7 ADD MSTORE PUSH1 0x2 SWAP1 SWAP2 ADD SLOAD PUSH1 0x1 PUSH1 0x1 PUSH1 0xA0 SHL SUB AND SWAP2 DUP4 ADD SWAP2 SWAP1 SWAP2 MSTORE SWAP1 DUP4 MSTORE SWAP1 SWAP3 ADD SWAP2 ADD PUSH2 0x640 JUMP JUMPDEST POP POP POP POP SWAP1 POP PUSH2 0x6B8 DUP2 PUSH1 0x0 PUSH1 0x1 PUSH1 0x3 DUP1 SLOAD SWAP1 POP PUSH2 0x6B3 SWAP2 SWAP1 PUSH2 0xEAC JUMP JUMPDEST PUSH2 0x82F JUMP JUMPDEST PUSH1 0x0 PUSH2 0x6C6 DUP3 PUSH1 0x6 SLOAD PUSH2 0x9BD JUMP JUMPDEST SWAP1 POP PUSH2 0x6D2 DUP3 DUP3 PUSH2 0xA48 JUMP JUMPDEST PUSH2 0x6DE PUSH1 0x3 PUSH1 0x0 PUSH2 0xB9D JUMP JUMPDEST POP POP JUMP JUMPDEST PUSH1 0x60 PUSH1 0x4 DUP1 SLOAD DUP1 PUSH1 0x20 MUL PUSH1 0x20 ADD PUSH1 0x40 MLOAD SWAP1 DUP2 ADD PUSH1 0x40 MSTORE DUP1 SWAP3 SWAP2 SWAP1 DUP2 DUP2 MSTORE PUSH1 0x20 ADD DUP3 DUP1 SLOAD DUP1 ISZERO PUSH2 0x73A JUMPI PUSH1 0x20 MUL DUP3 ADD SWAP2 SWAP1 PUSH1 0x0 MSTORE PUSH1 0x20 PUSH1 0x0 KECCAK256 SWAP1 JUMPDEST DUP2 SLOAD PUSH1 0x1 PUSH1 0x1 PUSH1 0xA0 SHL SUB AND DUP2 MSTORE PUSH1 0x1 SWAP1 SWAP2 ADD SWAP1 PUSH1 0x20 ADD DUP1 DUP4 GT PUSH2 0x71C JUMPI JUMPDEST POP POP POP POP POP SWAP1 POP SWAP1 JUMP JUMPDEST PUSH1 0x0 SLOAD PUSH1 0x1 PUSH1 0x1 PUSH1 0xA0 SHL SUB AND CALLER EQ PUSH2 0x76E JUMPI PUSH1 0x40 MLOAD PUSH3 0x461BCD PUSH1 0xE5 SHL DUP2 MSTORE PUSH1 0x4 ADD PUSH2 0x280 SWAP1 PUSH2 0xE77 JUMP JUMPDEST PUSH1 0x1 PUSH1 0x1 PUSH1 0xA0 SHL SUB DUP2 AND PUSH2 0x7D3 JUMPI PUSH1 0x40 MLOAD PUSH3 0x461BCD PUSH1 0xE5 SHL DUP2 MSTORE PUSH1 0x20 PUSH1 0x4 DUP3 ADD MSTORE PUSH1 0x26 PUSH1 0x24 DUP3 ADD MSTORE PUSH32 0x4F776E61626C653A206E6577206F776E657220697320746865207A65726F2061 PUSH1 0x44 DUP3 ADD MSTORE PUSH6 0x646472657373 PUSH1 0xD0 SHL PUSH1 0x64 DUP3 ADD MSTORE PUSH1 0x84 ADD PUSH2 0x280 JUMP JUMPDEST PUSH2 0x7DC DUP2 PUSH2 0x7DF JUMP JUMPDEST POP JUMP JUMPDEST PUSH1 0x0 DUP1 SLOAD PUSH1 0x1 PUSH1 0x1 PUSH1 0xA0 SHL SUB DUP4 DUP2 AND PUSH1 0x1 PUSH1 0x1 PUSH1 0xA0 SHL SUB NOT DUP4 AND DUP2 OR DUP5 SSTORE PUSH1 0x40 MLOAD SWAP2 SWAP1 SWAP3 AND SWAP3 DUP4 SWAP2 PUSH32 0x8BE0079C531659141344CD1FD0A4F28419497F9722A3DAAFE3B4186F6B6457E0 SWAP2 SWAP1 LOG3 POP POP JUMP JUMPDEST DUP2 DUP2 DUP1 DUP3 EQ ISZERO PUSH2 0x840 JUMPI POP POP POP POP POP JUMP JUMPDEST PUSH1 0x0 DUP6 PUSH1 0x2 PUSH2 0x84F DUP8 DUP8 PUSH2 0xEAC JUMP JUMPDEST PUSH2 0x859 SWAP2 SWAP1 PUSH2 0xEC3 JUMP JUMPDEST PUSH2 0x863 SWAP1 DUP8 PUSH2 0xEE5 JUMP JUMPDEST DUP2 MLOAD DUP2 LT PUSH2 0x873 JUMPI PUSH2 0x873 PUSH2 0xE11 JUMP JUMPDEST PUSH1 0x20 MUL PUSH1 0x20 ADD ADD MLOAD PUSH1 0x20 ADD MLOAD SWAP1 POP JUMPDEST DUP2 DUP4 GT PUSH2 0x98F JUMPI JUMPDEST DUP1 DUP7 DUP5 DUP2 MLOAD DUP2 LT PUSH2 0x89D JUMPI PUSH2 0x89D PUSH2 0xE11 JUMP JUMPDEST PUSH1 0x20 MUL PUSH1 0x20 ADD ADD MLOAD PUSH1 0x20 ADD MLOAD LT ISZERO PUSH2 0x8C1 JUMPI DUP3 PUSH2 0x8B9 DUP2 PUSH2 0xE5C JUMP JUMPDEST SWAP4 POP POP PUSH2 0x88A JUMP JUMPDEST DUP6 DUP3 DUP2 MLOAD DUP2 LT PUSH2 0x8D3 JUMPI PUSH2 0x8D3 PUSH2 0xE11 JUMP JUMPDEST PUSH1 0x20 MUL PUSH1 0x20 ADD ADD MLOAD PUSH1 0x20 ADD MLOAD DUP2 LT ISZERO PUSH2 0x8F8 JUMPI DUP2 PUSH2 0x8F0 DUP2 PUSH2 0xEFD JUMP JUMPDEST SWAP3 POP POP PUSH2 0x8C1 JUMP JUMPDEST DUP2 DUP4 GT PUSH2 0x98A JUMPI DUP6 DUP3 DUP2 MLOAD DUP2 LT PUSH2 0x911 JUMPI PUSH2 0x911 PUSH2 0xE11 JUMP JUMPDEST PUSH1 0x20 MUL PUSH1 0x20 ADD ADD MLOAD DUP7 DUP5 DUP2 MLOAD DUP2 LT PUSH2 0x92B JUMPI PUSH2 0x92B PUSH2 0xE11 JUMP JUMPDEST PUSH1 0x20 MUL PUSH1 0x20 ADD ADD MLOAD DUP8 DUP6 DUP2 MLOAD DUP2 LT PUSH2 0x945 JUMPI PUSH2 0x945 PUSH2 0xE11 JUMP JUMPDEST PUSH1 0x20 MUL PUSH1 0x20 ADD ADD DUP9 DUP6 DUP2 MLOAD DUP2 LT PUSH2 0x95E JUMPI PUSH2 0x95E PUSH2 0xE11 JUMP JUMPDEST PUSH1 0x20 MUL PUSH1 0x20 ADD ADD DUP3 SWAP1 MSTORE DUP3 SWAP1 MSTORE POP POP DUP3 DUP1 PUSH2 0x978 SWAP1 PUSH2 0xE5C JUMP JUMPDEST SWAP4 POP POP DUP2 DUP1 PUSH2 0x986 SWAP1 PUSH2 0xEFD JUMP JUMPDEST SWAP3 POP POP JUMPDEST PUSH2 0x882 JUMP JUMPDEST DUP2 DUP6 LT ISZERO PUSH2 0x9A2 JUMPI PUSH2 0x9A2 DUP7 DUP7 DUP5 PUSH2 0x82F JUMP JUMPDEST DUP4 DUP4 LT ISZERO PUSH2 0x9B5 JUMPI PUSH2 0x9B5 DUP7 DUP5 DUP7 PUSH2 0x82F JUMP JUMPDEST POP POP POP POP POP POP JUMP JUMPDEST PUSH1 0x0 DUP1 DUP1 DUP1 JUMPDEST DUP6 MLOAD DUP2 LT ISZERO PUSH2 0xA3E JUMPI DUP6 DUP2 DUP2 MLOAD DUP2 LT PUSH2 0x9DE JUMPI PUSH2 0x9DE PUSH2 0xE11 JUMP JUMPDEST PUSH1 0x20 MUL PUSH1 0x20 ADD ADD MLOAD PUSH1 0x0 ADD MLOAD DUP3 PUSH2 0x9F5 SWAP2 SWAP1 PUSH2 0xEE5 JUMP JUMPDEST SWAP2 POP PUSH1 0x6 SLOAD DUP3 LT PUSH2 0xA2C JUMPI DUP1 SWAP3 POP DUP6 DUP2 DUP2 MLOAD DUP2 LT PUSH2 0xA15 JUMPI PUSH2 0xA15 PUSH2 0xE11 JUMP JUMPDEST PUSH1 0x20 MUL PUSH1 0x20 ADD ADD MLOAD PUSH1 0x20 ADD MLOAD PUSH1 0x5 DUP2 SWAP1 SSTORE POP PUSH2 0xA3E JUMP JUMPDEST DUP1 PUSH2 0xA36 DUP2 PUSH2 0xE5C JUMP JUMPDEST SWAP2 POP POP PUSH2 0x9C3 JUMP JUMPDEST POP SWAP1 SWAP5 SWAP4 POP POP POP POP JUMP JUMPDEST PUSH1 0x0 JUMPDEST DUP2 DUP2 GT PUSH2 0xB0A JUMPI PUSH1 0x0 DUP4 DUP3 DUP2 MLOAD DUP2 LT PUSH2 0xA66 JUMPI PUSH2 0xA66 PUSH2 0xE11 JUMP JUMPDEST PUSH1 0x20 MUL PUSH1 0x20 ADD ADD MLOAD PUSH1 0x40 ADD MLOAD SWAP1 POP PUSH1 0x4 DUP5 DUP4 DUP2 MLOAD DUP2 LT PUSH2 0xA88 JUMPI PUSH2 0xA88 PUSH2 0xE11 JUMP JUMPDEST PUSH1 0x20 SWAP1 DUP2 MUL SWAP2 SWAP1 SWAP2 ADD DUP2 ADD MLOAD PUSH1 0x40 SWAP1 DUP2 ADD MLOAD DUP4 SLOAD PUSH1 0x1 DUP2 ADD DUP6 SSTORE PUSH1 0x0 SWAP5 DUP6 MSTORE SWAP3 DUP5 KECCAK256 SWAP1 SWAP3 ADD DUP1 SLOAD PUSH1 0x1 PUSH1 0x1 PUSH1 0xA0 SHL SUB NOT AND PUSH1 0x1 PUSH1 0x1 PUSH1 0xA0 SHL SUB SWAP4 DUP5 AND OR SWAP1 SSTORE PUSH1 0x5 SLOAD SWAP1 MLOAD SWAP2 DUP5 AND SWAP3 PUSH2 0x8FC DUP3 ISZERO MUL SWAP3 SWAP1 DUP2 DUP2 DUP2 DUP6 DUP9 DUP9 CALL SWAP4 POP POP POP POP ISZERO DUP1 ISZERO PUSH2 0xAF5 JUMPI RETURNDATASIZE PUSH1 0x0 DUP1 RETURNDATACOPY RETURNDATASIZE PUSH1 0x0 REVERT JUMPDEST POP POP DUP1 DUP1 PUSH2 0xB02 SWAP1 PUSH2 0xE5C JUMP JUMPDEST SWAP2 POP POP PUSH2 0xA4B JUMP JUMPDEST POP PUSH1 0x0 DUP1 SLOAD PUSH1 0x1 PUSH1 0x1 PUSH1 0xA0 SHL SUB AND PUSH1 0x40 MLOAD SWAP1 SWAP2 POP PUSH1 0x1 PUSH1 0x1 PUSH1 0xA0 SHL SUB DUP3 AND SWAP1 SELFBALANCE DUP1 ISZERO PUSH2 0x8FC MUL SWAP2 PUSH1 0x0 DUP2 DUP2 DUP2 DUP6 DUP9 DUP9 CALL SWAP4 POP POP POP POP ISZERO DUP1 ISZERO PUSH2 0xB50 JUMPI RETURNDATASIZE PUSH1 0x0 DUP1 RETURNDATACOPY RETURNDATASIZE PUSH1 0x0 REVERT JUMPDEST POP PUSH1 0x40 MLOAD PUSH32 0x2A071A72223D3C3A8EC68C16CE284E338FD8053D4E51FA0A65EB7ABA0173A9F6 SWAP1 PUSH1 0x0 SWAP1 LOG1 POP POP POP JUMP JUMPDEST POP DUP1 SLOAD PUSH1 0x0 DUP3 SSTORE SWAP1 PUSH1 0x0 MSTORE PUSH1 0x20 PUSH1 0x0 KECCAK256 SWAP1 DUP2 ADD SWAP1 PUSH2 0x7DC SWAP2 SWAP1 PUSH2 0xBBE JUMP JUMPDEST POP DUP1 SLOAD PUSH1 0x0 DUP3 SSTORE PUSH1 0x3 MUL SWAP1 PUSH1 0x0 MSTORE PUSH1 0x20 PUSH1 0x0 KECCAK256 SWAP1 DUP2 ADD SWAP1 PUSH2 0x7DC SWAP2 SWAP1 PUSH2 0xBD7 JUMP JUMPDEST JUMPDEST DUP1 DUP3 GT ISZERO PUSH2 0xBD3 JUMPI PUSH1 0x0 DUP2 SSTORE PUSH1 0x1 ADD PUSH2 0xBBF JUMP JUMPDEST POP SWAP1 JUMP JUMPDEST JUMPDEST DUP1 DUP3 GT ISZERO PUSH2 0xBD3 JUMPI PUSH1 0x0 DUP1 DUP3 SSTORE PUSH1 0x1 DUP3 ADD SSTORE PUSH1 0x2 DUP2 ADD DUP1 SLOAD PUSH1 0x1 PUSH1 0x1 PUSH1 0xA0 SHL SUB NOT AND SWAP1 SSTORE PUSH1 0x3 ADD PUSH2 0xBD8 JUMP JUMPDEST PUSH4 0x4E487B71 PUSH1 0xE0 SHL PUSH1 0x0 MSTORE PUSH1 0x41 PUSH1 0x4 MSTORE PUSH1 0x24 PUSH1 0x0 REVERT JUMPDEST PUSH1 0x0 DUP3 PUSH1 0x1F DUP4 ADD SLT PUSH2 0xC2B JUMPI PUSH1 0x0 DUP1 REVERT JUMPDEST DUP2 CALLDATALOAD PUSH1 0x20 PUSH8 0xFFFFFFFFFFFFFFFF DUP1 DUP4 GT ISZERO PUSH2 0xC48 JUMPI PUSH2 0xC48 PUSH2 0xC04 JUMP JUMPDEST DUP3 PUSH1 0x5 SHL PUSH1 0x40 MLOAD PUSH1 0x1F NOT PUSH1 0x3F DUP4 ADD AND DUP2 ADD DUP2 DUP2 LT DUP5 DUP3 GT OR ISZERO PUSH2 0xC6D JUMPI PUSH2 0xC6D PUSH2 0xC04 JUMP JUMPDEST PUSH1 0x40 MSTORE SWAP4 DUP5 MSTORE DUP6 DUP2 ADD DUP4 ADD SWAP4 DUP4 DUP2 ADD SWAP3 POP DUP8 DUP6 GT ISZERO PUSH2 0xC8B JUMPI PUSH1 0x0 DUP1 REVERT JUMPDEST DUP4 DUP8 ADD SWAP2 POP JUMPDEST DUP5 DUP3 LT ISZERO PUSH2 0xCAA JUMPI DUP2 CALLDATALOAD DUP4 MSTORE SWAP2 DUP4 ADD SWAP2 SWAP1 DUP4 ADD SWAP1 PUSH2 0xC91 JUMP JUMPDEST SWAP8 SWAP7 POP POP POP POP POP POP POP JUMP JUMPDEST PUSH1 0x0 DUP1 PUSH1 0x40 DUP4 DUP6 SUB SLT ISZERO PUSH2 0xCC8 JUMPI PUSH1 0x0 DUP1 REVERT JUMPDEST DUP3 CALLDATALOAD PUSH8 0xFFFFFFFFFFFFFFFF DUP1 DUP3 GT ISZERO PUSH2 0xCE0 JUMPI PUSH1 0x0 DUP1 REVERT JUMPDEST PUSH2 0xCEC DUP7 DUP4 DUP8 ADD PUSH2 0xC1A JUMP JUMPDEST SWAP4 POP PUSH1 0x20 DUP6 ADD CALLDATALOAD SWAP2 POP DUP1 DUP3 GT ISZERO PUSH2 0xD02 JUMPI PUSH1 0x0 DUP1 REVERT JUMPDEST POP PUSH2 0xD0F DUP6 DUP3 DUP7 ADD PUSH2 0xC1A JUMP JUMPDEST SWAP2 POP POP SWAP3 POP SWAP3 SWAP1 POP JUMP JUMPDEST PUSH1 0x0 PUSH1 0x20 DUP3 DUP5 SUB SLT ISZERO PUSH2 0xD2B JUMPI PUSH1 0x0 DUP1 REVERT JUMPDEST DUP2 CALLDATALOAD PUSH1 0x1 PUSH1 0x1 PUSH1 0xA0 SHL SUB DUP2 AND DUP2 EQ PUSH2 0xD42 JUMPI PUSH1 0x0 DUP1 REVERT JUMPDEST SWAP4 SWAP3 POP POP POP JUMP JUMPDEST PUSH1 0x0 PUSH1 0x20 DUP3 DUP5 SUB SLT ISZERO PUSH2 0xD5B JUMPI PUSH1 0x0 DUP1 REVERT JUMPDEST POP CALLDATALOAD SWAP2 SWAP1 POP JUMP JUMPDEST PUSH1 0x20 DUP1 DUP3 MSTORE DUP3 MLOAD DUP3 DUP3 ADD DUP2 SWAP1 MSTORE PUSH1 0x0 SWAP2 SWAP1 PUSH1 0x40 SWAP1 DUP2 DUP6 ADD SWAP1 DUP7 DUP5 ADD DUP6 JUMPDEST DUP3 DUP2 LT ISZERO PUSH2 0xDB7 JUMPI DUP2 MLOAD DUP1 MLOAD DUP6 MSTORE DUP7 DUP2 ADD MLOAD DUP8 DUP7 ADD MSTORE DUP6 ADD MLOAD PUSH1 0x1 PUSH1 0x1 PUSH1 0xA0 SHL SUB AND DUP6 DUP6 ADD MSTORE PUSH1 0x60 SWAP1 SWAP4 ADD SWAP3 SWAP1 DUP6 ADD SWAP1 PUSH1 0x1 ADD PUSH2 0xD7F JUMP JUMPDEST POP SWAP2 SWAP8 SWAP7 POP POP POP POP POP POP POP JUMP JUMPDEST PUSH1 0x20 DUP1 DUP3 MSTORE DUP3 MLOAD DUP3 DUP3 ADD DUP2 SWAP1 MSTORE PUSH1 0x0 SWAP2 SWAP1 DUP5 DUP3 ADD SWAP1 PUSH1 0x40 DUP6 ADD SWAP1 DUP5 JUMPDEST DUP2 DUP2 LT ISZERO PUSH2 0xE05 JUMPI DUP4 MLOAD PUSH1 0x1 PUSH1 0x1 PUSH1 0xA0 SHL SUB AND DUP4 MSTORE SWAP3 DUP5 ADD SWAP3 SWAP2 DUP5 ADD SWAP2 PUSH1 0x1 ADD PUSH2 0xDE0 JUMP JUMPDEST POP SWAP1 SWAP7 SWAP6 POP POP POP POP POP POP JUMP JUMPDEST PUSH4 0x4E487B71 PUSH1 0xE0 SHL PUSH1 0x0 MSTORE PUSH1 0x32 PUSH1 0x4 MSTORE PUSH1 0x24 PUSH1 0x0 REVERT JUMPDEST PUSH4 0x4E487B71 PUSH1 0xE0 SHL PUSH1 0x0 MSTORE PUSH1 0x11 PUSH1 0x4 MSTORE PUSH1 0x24 PUSH1 0x0 REVERT JUMPDEST PUSH1 0x0 DUP2 PUSH1 0x0 NOT DIV DUP4 GT DUP3 ISZERO ISZERO AND ISZERO PUSH2 0xE57 JUMPI PUSH2 0xE57 PUSH2 0xE27 JUMP JUMPDEST POP MUL SWAP1 JUMP JUMPDEST PUSH1 0x0 PUSH1 0x0 NOT DUP3 EQ ISZERO PUSH2 0xE70 JUMPI PUSH2 0xE70 PUSH2 0xE27 JUMP JUMPDEST POP PUSH1 0x1 ADD SWAP1 JUMP JUMPDEST PUSH1 0x20 DUP1 DUP3 MSTORE DUP2 DUP2 ADD MSTORE PUSH32 0x4F776E61626C653A2063616C6C6572206973206E6F7420746865206F776E6572 PUSH1 0x40 DUP3 ADD MSTORE PUSH1 0x60 ADD SWAP1 JUMP JUMPDEST PUSH1 0x0 DUP3 DUP3 LT ISZERO PUSH2 0xEBE JUMPI PUSH2 0xEBE PUSH2 0xE27 JUMP JUMPDEST POP SUB SWAP1 JUMP JUMPDEST PUSH1 0x0 DUP3 PUSH2 0xEE0 JUMPI PUSH4 0x4E487B71 PUSH1 0xE0 SHL PUSH1 0x0 MSTORE PUSH1 0x12 PUSH1 0x4 MSTORE PUSH1 0x24 PUSH1 0x0 REVERT JUMPDEST POP DIV SWAP1 JUMP JUMPDEST PUSH1 0x0 DUP3 NOT DUP3 GT ISZERO PUSH2 0xEF8 JUMPI PUSH2 0xEF8 PUSH2 0xE27 JUMP JUMPDEST POP ADD SWAP1 JUMP JUMPDEST PUSH1 0x0 DUP2 PUSH2 0xF0C JUMPI PUSH2 0xF0C PUSH2 0xE27 JUMP JUMPDEST POP PUSH1 0x0 NOT ADD SWAP1 JUMP INVALID LOG2 PUSH5 0x6970667358 0x22 SLT KECCAK256 0x2A KECCAK256 0x27 DUP14 0xC0 MSIZE PC PUSH2 0x2B7F 0xC9 ADDMOD 0x4C PC DELEGATECALL 0xEF 0xED 0xD DUP1 0xA6 MSIZE 0xDB 0x23 0xBC 0xEF LOG0 PUSH9 0xDCD2223B4A64736F6C PUSH4 0x4300080B STOP CALLER ",
  "sha1": "b163642dcfec7ce30b541982dfa8fdac8fc74ab0",
  "source": "//SPDX-License-Identifier: Unlicense\npragma solidity ^0.8.0;\n\n//This is marked as an error for me but i don't think it's actually an error. IDK.\nimport \"OpenZeppelin/openzeppelin-contracts@4.4.1/contracts/access/Ownable.sol\";\n\n\ncontract DemandReduction is Ownable{\n    \n    // Stucture of a submitted bid\n    struct Bid {\n        uint256 power;\n        uint256 price;\n        address consumer;\n    }\n\n    // ----------- Variables ----------- //\n\n    // To keep track of who has registered\n    mapping(address => bool) registered;\n    address [] registrants;\n    \n    Bid[] bids; // All consumer bids\n    address [] winners; // selected winners\n    uint reward_amount; // Chosen based on winning bid\n    uint power_reduction; // Specified by consumer\n\n    // -------- Events --------- //\n\n    // Notify consumer when to submit their bids\n    event notify_consumer();\n\n    // Notify consumers of the winning bids\n    event notify_rewards();\n\n\n    // ---------- Public Utility Functions -------------- //\n\n    \n    // Allows the utility to request an energy reduction specified by the amount\n    function request_reduction(uint reduction_amount) public payable onlyOwner{\n        require(reduction_amount > 0, \"Must request a reduction amount > 0\");\n        require(msg.value >= 0.01 ether, \"Must pay at least 0.01 ether\");\n        power_reduction = reduction_amount;\n        emit notify_consumer();\n    }\n\n\n    // Driver function for selecting the winning bids\n    function select_winners() public {\n        require(bids.length > 0, \"There are no bids!\");\n        delete winners;\n        Bid [] memory sorted_bids;\n        sorted_bids = bids;\n        quickSort(sorted_bids, 0, bids.length-1);\n        uint lastWinningBid = 0;\n        lastWinningBid = optimize_bids(sorted_bids, power_reduction);\n        disperse_rewards(sorted_bids, lastWinningBid);\n        delete bids;\n        // delete reward_amount;\n        // delete power_reduction;\n    }\n\n\n    // -------------- Public Consumer Functions -------------- //\n\n\n    // Function to receive consumer bid submissions in the form of power to price\n    function submit_bids(uint256[] memory power, uint256[] memory price) public {\n        // require(registered[msg.sender] == true, \"Need to register\");\n        require(power.length == price.length, \"Each bid must have a reduction amount and an associated price\");\n        for(uint i = 0; i < power.length; i++){\n            bids.push(Bid(power[i], price[i] * 1 wei, msg.sender)); \n        }\n    }\n\n\n    // Function to allow consumers to register to the smart contract\n    function register() public {\n        require(registered[msg.sender] == false, \"Already registered\");\n        registrants.push(msg.sender);\n        registered[msg.sender] = true;\n    }\n\n\n    // ------------- Private Functions ------------ //\n\n\n    // Optimizes the bids based on most energy for cheapest price\n    // Returns index of the last selected bid of the sorted list\n    function optimize_bids(Bid [] memory bids, uint reduction)private returns(uint){\n        uint last_bid = 0; uint power_amount = 0;\n        for(uint i = 0; i < bids.length; i++){\n            power_amount += bids[i].power;\n            if(power_amount >= power_reduction){\n                last_bid = i;\n                reward_amount = bids[i].price;\n                break;\n            }\n        }\n        return last_bid;\n    }\n\n\n    // Quick sort algorithm for bids array. Must have a wrapper\n    function quickSort(Bid[] memory arr, uint left, uint right) private{\n        uint i = left;\n        uint j = right;\n        if(i==j) return;\n        uint pivot = arr[uint(left + (right - left) / 2)].price;\n        while (i <= j) {\n            while (arr[uint(i)].price < pivot) i++;\n            while (pivot < arr[uint(j)].price) j--;\n            if (i <= j) {\n                (arr[uint(i)], arr[uint(j)]) = (arr[uint(j)], arr[uint(i)]);\n                i++;\n                j--;\n            }\n        }\n        if (left < j)\n            quickSort(arr, left, j);\n        if (i < right)\n            quickSort(arr, i, right);\n    }\n\n\n    // Function to disperse rewards to each selected winner\n    function disperse_rewards(Bid [] memory bids, uint last_bid) private {\n        for(uint i = 0; i <= last_bid; i++){\n            address payable winner = payable(bids[i].consumer);\n            winners.push(bids[i].consumer);\n            // winners.push(bids[i]);\n            winner.transfer(reward_amount);\n        }\n        address payable _owner = payable(owner());\n        _owner.transfer(address(this).balance);\n        emit notify_rewards();\n    }\n\n\n    // ---------- Public View Functions --------- //\n    \n\n    // Simply getters for different global variables\n\n    function getRegistered(address consumer) public view returns(bool){\n        return registered[consumer];\n    }\n\n    function getBids() public view returns (Bid[] memory){\n        return(bids);\n    }\n\n    function getWinners() public view returns (address [] memory){\n        return(winners);\n    }\n    // function getWinners() public view returns (address [] memory){\n    //     return(winners);\n    // }\n\n    function getRewardAmount() public view returns (uint) {\n        return(reward_amount);\n    }\n\n}\n",
  "sourcePath": "contracts/DemandReduction.sol",
  "type": "contract"
}